{
	"gas-station.sol": {
		"GasStation": {
			"abi": [
				{
					"inputs": [],
					"stateMutability": "nonpayable",
					"type": "constructor"
				},
				{
					"inputs": [
						{
							"internalType": "string",
							"name": "_name",
							"type": "string"
						}
					],
					"name": "registerPerson",
					"outputs": [],
					"stateMutability": "nonpayable",
					"type": "function"
				}
			],
			"devdoc": {
				"kind": "dev",
				"methods": {},
				"version": 1
			},
			"evm": {
				"assembly": "    /* \"gas-station.sol\":129:661  contract GasStation {\r... */\n  mstore(0x40, 0x80)\n    /* \"gas-station.sol\":275:276  1 */\n  0x01\n    /* \"gas-station.sol\":259:276  uint gasPrice = 1 */\n  dup1\n  sstore\n    /* \"gas-station.sol\":192:251  constructor(){\r... */\n  callvalue\n  dup1\n  iszero\n  tag_1\n  jumpi\n  0x00\n  dup1\n  revert\ntag_1:\n  pop\n    /* \"gas-station.sol\":232:242  msg.sender */\n  caller\n    /* \"gas-station.sol\":216:221  owner */\n  0x00\n  dup1\n    /* \"gas-station.sol\":216:243  owner = payable(msg.sender) */\n  0x0100\n  exp\n  dup2\n  sload\n  dup2\n  0xffffffffffffffffffffffffffffffffffffffff\n  mul\n  not\n  and\n  swap1\n  dup4\n  0xffffffffffffffffffffffffffffffffffffffff\n  and\n  mul\n  or\n  swap1\n  sstore\n  pop\n    /* \"gas-station.sol\":129:661  contract GasStation {\r... */\n  dataSize(sub_0)\n  dup1\n  dataOffset(sub_0)\n  0x00\n  codecopy\n  0x00\n  return\nstop\n\nsub_0: assembly {\n        /* \"gas-station.sol\":129:661  contract GasStation {\r... */\n      mstore(0x40, 0x80)\n      callvalue\n      dup1\n      iszero\n      tag_1\n      jumpi\n      0x00\n      dup1\n      revert\n    tag_1:\n      pop\n      jumpi(tag_2, lt(calldatasize, 0x04))\n      shr(0xe0, calldataload(0x00))\n      dup1\n      0x0fe91b5e\n      eq\n      tag_3\n      jumpi\n    tag_2:\n      0x00\n      dup1\n      revert\n        /* \"gas-station.sol\":513:658  function registerPerson(string memory _name) external{\r... */\n    tag_3:\n      tag_4\n      0x04\n      dup1\n      calldatasize\n      sub\n      dup2\n      add\n      swap1\n      tag_5\n      swap2\n      swap1\n      tag_6\n      jump\t// in\n    tag_5:\n      tag_7\n      jump\t// in\n    tag_4:\n      stop\n    tag_7:\n        /* \"gas-station.sol\":586:592  people */\n      0x02\n        /* \"gas-station.sol\":586:604  people[msg.sender] */\n      0x00\n        /* \"gas-station.sol\":593:603  msg.sender */\n      caller\n        /* \"gas-station.sol\":586:604  people[msg.sender] */\n      0xffffffffffffffffffffffffffffffffffffffff\n      and\n      0xffffffffffffffffffffffffffffffffffffffff\n      and\n      dup2\n      mstore\n      0x20\n      add\n      swap1\n      dup2\n      mstore\n      0x20\n      add\n      0x00\n      keccak256\n        /* \"gas-station.sol\":586:609  people[msg.sender].init */\n      0x04\n      add\n      0x00\n      swap1\n      sload\n      swap1\n      0x0100\n      exp\n      swap1\n      div\n      0xff\n      and\n        /* \"gas-station.sol\":585:609  !people[msg.sender].init */\n      iszero\n        /* \"gas-station.sol\":577:640  require(!people[msg.sender].init, \"Account Already Registered\") */\n      tag_9\n      jumpi\n      mload(0x40)\n      0x08c379a000000000000000000000000000000000000000000000000000000000\n      dup2\n      mstore\n      0x04\n      add\n      tag_10\n      swap1\n      tag_11\n      jump\t// in\n    tag_10:\n      mload(0x40)\n      dup1\n      swap2\n      sub\n      swap1\n      revert\n    tag_9:\n        /* \"gas-station.sol\":513:658  function registerPerson(string memory _name) external{\r... */\n      pop\n      jump\t// out\n        /* \"#utility.yul\":7:419   */\n    tag_13:\n        /* \"#utility.yul\":85:90   */\n      0x00\n        /* \"#utility.yul\":110:176   */\n      tag_15\n        /* \"#utility.yul\":126:175   */\n      tag_16\n        /* \"#utility.yul\":168:174   */\n      dup5\n        /* \"#utility.yul\":126:175   */\n      tag_17\n      jump\t// in\n    tag_16:\n        /* \"#utility.yul\":110:176   */\n      tag_18\n      jump\t// in\n    tag_15:\n        /* \"#utility.yul\":101:176   */\n      swap1\n      pop\n        /* \"#utility.yul\":199:205   */\n      dup3\n        /* \"#utility.yul\":192:197   */\n      dup2\n        /* \"#utility.yul\":185:206   */\n      mstore\n        /* \"#utility.yul\":237:241   */\n      0x20\n        /* \"#utility.yul\":230:235   */\n      dup2\n        /* \"#utility.yul\":226:242   */\n      add\n        /* \"#utility.yul\":275:278   */\n      dup5\n        /* \"#utility.yul\":266:272   */\n      dup5\n        /* \"#utility.yul\":261:264   */\n      dup5\n        /* \"#utility.yul\":257:273   */\n      add\n        /* \"#utility.yul\":254:279   */\n      gt\n        /* \"#utility.yul\":251:363   */\n      iszero\n      tag_19\n      jumpi\n        /* \"#utility.yul\":282:361   */\n      tag_20\n      tag_21\n      jump\t// in\n    tag_20:\n        /* \"#utility.yul\":251:363   */\n    tag_19:\n        /* \"#utility.yul\":372:413   */\n      tag_22\n        /* \"#utility.yul\":406:412   */\n      dup5\n        /* \"#utility.yul\":401:404   */\n      dup3\n        /* \"#utility.yul\":396:399   */\n      dup6\n        /* \"#utility.yul\":372:413   */\n      tag_23\n      jump\t// in\n    tag_22:\n        /* \"#utility.yul\":91:419   */\n      pop\n        /* \"#utility.yul\":7:419   */\n      swap4\n      swap3\n      pop\n      pop\n      pop\n      jump\t// out\n        /* \"#utility.yul\":439:779   */\n    tag_24:\n        /* \"#utility.yul\":495:500   */\n      0x00\n        /* \"#utility.yul\":544:547   */\n      dup3\n        /* \"#utility.yul\":537:541   */\n      0x1f\n        /* \"#utility.yul\":529:535   */\n      dup4\n        /* \"#utility.yul\":525:542   */\n      add\n        /* \"#utility.yul\":521:548   */\n      slt\n        /* \"#utility.yul\":511:633   */\n      tag_26\n      jumpi\n        /* \"#utility.yul\":552:631   */\n      tag_27\n      tag_28\n      jump\t// in\n    tag_27:\n        /* \"#utility.yul\":511:633   */\n    tag_26:\n        /* \"#utility.yul\":669:675   */\n      dup2\n        /* \"#utility.yul\":656:676   */\n      calldataload\n        /* \"#utility.yul\":694:773   */\n      tag_29\n        /* \"#utility.yul\":769:772   */\n      dup5\n        /* \"#utility.yul\":761:767   */\n      dup3\n        /* \"#utility.yul\":754:758   */\n      0x20\n        /* \"#utility.yul\":746:752   */\n      dup7\n        /* \"#utility.yul\":742:759   */\n      add\n        /* \"#utility.yul\":694:773   */\n      tag_13\n      jump\t// in\n    tag_29:\n        /* \"#utility.yul\":685:773   */\n      swap2\n      pop\n        /* \"#utility.yul\":501:779   */\n      pop\n        /* \"#utility.yul\":439:779   */\n      swap3\n      swap2\n      pop\n      pop\n      jump\t// out\n        /* \"#utility.yul\":785:1294   */\n    tag_6:\n        /* \"#utility.yul\":854:860   */\n      0x00\n        /* \"#utility.yul\":903:905   */\n      0x20\n        /* \"#utility.yul\":891:900   */\n      dup3\n        /* \"#utility.yul\":882:889   */\n      dup5\n        /* \"#utility.yul\":878:901   */\n      sub\n        /* \"#utility.yul\":874:906   */\n      slt\n        /* \"#utility.yul\":871:990   */\n      iszero\n      tag_31\n      jumpi\n        /* \"#utility.yul\":909:988   */\n      tag_32\n      tag_33\n      jump\t// in\n    tag_32:\n        /* \"#utility.yul\":871:990   */\n    tag_31:\n        /* \"#utility.yul\":1057:1058   */\n      0x00\n        /* \"#utility.yul\":1046:1055   */\n      dup3\n        /* \"#utility.yul\":1042:1059   */\n      add\n        /* \"#utility.yul\":1029:1060   */\n      calldataload\n        /* \"#utility.yul\":1087:1105   */\n      0xffffffffffffffff\n        /* \"#utility.yul\":1079:1085   */\n      dup2\n        /* \"#utility.yul\":1076:1106   */\n      gt\n        /* \"#utility.yul\":1073:1190   */\n      iszero\n      tag_34\n      jumpi\n        /* \"#utility.yul\":1109:1188   */\n      tag_35\n      tag_36\n      jump\t// in\n    tag_35:\n        /* \"#utility.yul\":1073:1190   */\n    tag_34:\n        /* \"#utility.yul\":1214:1277   */\n      tag_37\n        /* \"#utility.yul\":1269:1276   */\n      dup5\n        /* \"#utility.yul\":1260:1266   */\n      dup3\n        /* \"#utility.yul\":1249:1258   */\n      dup6\n        /* \"#utility.yul\":1245:1267   */\n      add\n        /* \"#utility.yul\":1214:1277   */\n      tag_24\n      jump\t// in\n    tag_37:\n        /* \"#utility.yul\":1204:1277   */\n      swap2\n      pop\n        /* \"#utility.yul\":1000:1287   */\n      pop\n        /* \"#utility.yul\":785:1294   */\n      swap3\n      swap2\n      pop\n      pop\n      jump\t// out\n        /* \"#utility.yul\":1300:1666   */\n    tag_38:\n        /* \"#utility.yul\":1442:1445   */\n      0x00\n        /* \"#utility.yul\":1463:1530   */\n      tag_40\n        /* \"#utility.yul\":1527:1529   */\n      0x1a\n        /* \"#utility.yul\":1522:1525   */\n      dup4\n        /* \"#utility.yul\":1463:1530   */\n      tag_41\n      jump\t// in\n    tag_40:\n        /* \"#utility.yul\":1456:1530   */\n      swap2\n      pop\n        /* \"#utility.yul\":1539:1632   */\n      tag_42\n        /* \"#utility.yul\":1628:1631   */\n      dup3\n        /* \"#utility.yul\":1539:1632   */\n      tag_43\n      jump\t// in\n    tag_42:\n        /* \"#utility.yul\":1657:1659   */\n      0x20\n        /* \"#utility.yul\":1652:1655   */\n      dup3\n        /* \"#utility.yul\":1648:1660   */\n      add\n        /* \"#utility.yul\":1641:1660   */\n      swap1\n      pop\n        /* \"#utility.yul\":1300:1666   */\n      swap2\n      swap1\n      pop\n      jump\t// out\n        /* \"#utility.yul\":1672:2091   */\n    tag_11:\n        /* \"#utility.yul\":1838:1842   */\n      0x00\n        /* \"#utility.yul\":1876:1878   */\n      0x20\n        /* \"#utility.yul\":1865:1874   */\n      dup3\n        /* \"#utility.yul\":1861:1879   */\n      add\n        /* \"#utility.yul\":1853:1879   */\n      swap1\n      pop\n        /* \"#utility.yul\":1925:1934   */\n      dup2\n        /* \"#utility.yul\":1919:1923   */\n      dup2\n        /* \"#utility.yul\":1915:1935   */\n      sub\n        /* \"#utility.yul\":1911:1912   */\n      0x00\n        /* \"#utility.yul\":1900:1909   */\n      dup4\n        /* \"#utility.yul\":1896:1913   */\n      add\n        /* \"#utility.yul\":1889:1936   */\n      mstore\n        /* \"#utility.yul\":1953:2084   */\n      tag_45\n        /* \"#utility.yul\":2079:2083   */\n      dup2\n        /* \"#utility.yul\":1953:2084   */\n      tag_38\n      jump\t// in\n    tag_45:\n        /* \"#utility.yul\":1945:2084   */\n      swap1\n      pop\n        /* \"#utility.yul\":1672:2091   */\n      swap2\n      swap1\n      pop\n      jump\t// out\n        /* \"#utility.yul\":2097:2226   */\n    tag_18:\n        /* \"#utility.yul\":2131:2137   */\n      0x00\n        /* \"#utility.yul\":2158:2178   */\n      tag_47\n      tag_48\n      jump\t// in\n    tag_47:\n        /* \"#utility.yul\":2148:2178   */\n      swap1\n      pop\n        /* \"#utility.yul\":2187:2220   */\n      tag_49\n        /* \"#utility.yul\":2215:2219   */\n      dup3\n        /* \"#utility.yul\":2207:2213   */\n      dup3\n        /* \"#utility.yul\":2187:2220   */\n      tag_50\n      jump\t// in\n    tag_49:\n        /* \"#utility.yul\":2097:2226   */\n      swap2\n      swap1\n      pop\n      jump\t// out\n        /* \"#utility.yul\":2232:2307   */\n    tag_48:\n        /* \"#utility.yul\":2265:2271   */\n      0x00\n        /* \"#utility.yul\":2298:2300   */\n      0x40\n        /* \"#utility.yul\":2292:2301   */\n      mload\n        /* \"#utility.yul\":2282:2301   */\n      swap1\n      pop\n        /* \"#utility.yul\":2232:2307   */\n      swap1\n      jump\t// out\n        /* \"#utility.yul\":2313:2621   */\n    tag_17:\n        /* \"#utility.yul\":2375:2379   */\n      0x00\n        /* \"#utility.yul\":2465:2483   */\n      0xffffffffffffffff\n        /* \"#utility.yul\":2457:2463   */\n      dup3\n        /* \"#utility.yul\":2454:2484   */\n      gt\n        /* \"#utility.yul\":2451:2507   */\n      iszero\n      tag_53\n      jumpi\n        /* \"#utility.yul\":2487:2505   */\n      tag_54\n      tag_55\n      jump\t// in\n    tag_54:\n        /* \"#utility.yul\":2451:2507   */\n    tag_53:\n        /* \"#utility.yul\":2525:2554   */\n      tag_56\n        /* \"#utility.yul\":2547:2553   */\n      dup3\n        /* \"#utility.yul\":2525:2554   */\n      tag_57\n      jump\t// in\n    tag_56:\n        /* \"#utility.yul\":2517:2554   */\n      swap1\n      pop\n        /* \"#utility.yul\":2609:2613   */\n      0x20\n        /* \"#utility.yul\":2603:2607   */\n      dup2\n        /* \"#utility.yul\":2599:2614   */\n      add\n        /* \"#utility.yul\":2591:2614   */\n      swap1\n      pop\n        /* \"#utility.yul\":2313:2621   */\n      swap2\n      swap1\n      pop\n      jump\t// out\n        /* \"#utility.yul\":2627:2796   */\n    tag_41:\n        /* \"#utility.yul\":2711:2722   */\n      0x00\n        /* \"#utility.yul\":2745:2751   */\n      dup3\n        /* \"#utility.yul\":2740:2743   */\n      dup3\n        /* \"#utility.yul\":2733:2752   */\n      mstore\n        /* \"#utility.yul\":2785:2789   */\n      0x20\n        /* \"#utility.yul\":2780:2783   */\n      dup3\n        /* \"#utility.yul\":2776:2790   */\n      add\n        /* \"#utility.yul\":2761:2790   */\n      swap1\n      pop\n        /* \"#utility.yul\":2627:2796   */\n      swap3\n      swap2\n      pop\n      pop\n      jump\t// out\n        /* \"#utility.yul\":2802:2956   */\n    tag_23:\n        /* \"#utility.yul\":2886:2892   */\n      dup3\n        /* \"#utility.yul\":2881:2884   */\n      dup2\n        /* \"#utility.yul\":2876:2879   */\n      dup4\n        /* \"#utility.yul\":2863:2893   */\n      calldatacopy\n        /* \"#utility.yul\":2948:2949   */\n      0x00\n        /* \"#utility.yul\":2939:2945   */\n      dup4\n        /* \"#utility.yul\":2934:2937   */\n      dup4\n        /* \"#utility.yul\":2930:2946   */\n      add\n        /* \"#utility.yul\":2923:2950   */\n      mstore\n        /* \"#utility.yul\":2802:2956   */\n      pop\n      pop\n      pop\n      jump\t// out\n        /* \"#utility.yul\":2962:3243   */\n    tag_50:\n        /* \"#utility.yul\":3045:3072   */\n      tag_61\n        /* \"#utility.yul\":3067:3071   */\n      dup3\n        /* \"#utility.yul\":3045:3072   */\n      tag_57\n      jump\t// in\n    tag_61:\n        /* \"#utility.yul\":3037:3043   */\n      dup2\n        /* \"#utility.yul\":3033:3073   */\n      add\n        /* \"#utility.yul\":3175:3181   */\n      dup2\n        /* \"#utility.yul\":3163:3173   */\n      dup2\n        /* \"#utility.yul\":3160:3182   */\n      lt\n        /* \"#utility.yul\":3139:3157   */\n      0xffffffffffffffff\n        /* \"#utility.yul\":3127:3137   */\n      dup3\n        /* \"#utility.yul\":3124:3158   */\n      gt\n        /* \"#utility.yul\":3121:3183   */\n      or\n        /* \"#utility.yul\":3118:3206   */\n      iszero\n      tag_62\n      jumpi\n        /* \"#utility.yul\":3186:3204   */\n      tag_63\n      tag_55\n      jump\t// in\n    tag_63:\n        /* \"#utility.yul\":3118:3206   */\n    tag_62:\n        /* \"#utility.yul\":3226:3236   */\n      dup1\n        /* \"#utility.yul\":3222:3224   */\n      0x40\n        /* \"#utility.yul\":3215:3237   */\n      mstore\n        /* \"#utility.yul\":3005:3243   */\n      pop\n        /* \"#utility.yul\":2962:3243   */\n      pop\n      pop\n      jump\t// out\n        /* \"#utility.yul\":3249:3429   */\n    tag_55:\n        /* \"#utility.yul\":3297:3374   */\n      0x4e487b7100000000000000000000000000000000000000000000000000000000\n        /* \"#utility.yul\":3294:3295   */\n      0x00\n        /* \"#utility.yul\":3287:3375   */\n      mstore\n        /* \"#utility.yul\":3394:3398   */\n      0x41\n        /* \"#utility.yul\":3391:3392   */\n      0x04\n        /* \"#utility.yul\":3384:3399   */\n      mstore\n        /* \"#utility.yul\":3418:3422   */\n      0x24\n        /* \"#utility.yul\":3415:3416   */\n      0x00\n        /* \"#utility.yul\":3408:3423   */\n      revert\n        /* \"#utility.yul\":3435:3552   */\n    tag_28:\n        /* \"#utility.yul\":3544:3545   */\n      0x00\n        /* \"#utility.yul\":3541:3542   */\n      dup1\n        /* \"#utility.yul\":3534:3546   */\n      revert\n        /* \"#utility.yul\":3558:3675   */\n    tag_21:\n        /* \"#utility.yul\":3667:3668   */\n      0x00\n        /* \"#utility.yul\":3664:3665   */\n      dup1\n        /* \"#utility.yul\":3657:3669   */\n      revert\n        /* \"#utility.yul\":3681:3798   */\n    tag_36:\n        /* \"#utility.yul\":3790:3791   */\n      0x00\n        /* \"#utility.yul\":3787:3788   */\n      dup1\n        /* \"#utility.yul\":3780:3792   */\n      revert\n        /* \"#utility.yul\":3804:3921   */\n    tag_33:\n        /* \"#utility.yul\":3913:3914   */\n      0x00\n        /* \"#utility.yul\":3910:3911   */\n      dup1\n        /* \"#utility.yul\":3903:3915   */\n      revert\n        /* \"#utility.yul\":3927:4029   */\n    tag_57:\n        /* \"#utility.yul\":3968:3974   */\n      0x00\n        /* \"#utility.yul\":4019:4021   */\n      0x1f\n        /* \"#utility.yul\":4015:4022   */\n      not\n        /* \"#utility.yul\":4010:4012   */\n      0x1f\n        /* \"#utility.yul\":4003:4008   */\n      dup4\n        /* \"#utility.yul\":3999:4013   */\n      add\n        /* \"#utility.yul\":3995:4023   */\n      and\n        /* \"#utility.yul\":3985:4023   */\n      swap1\n      pop\n        /* \"#utility.yul\":3927:4029   */\n      swap2\n      swap1\n      pop\n      jump\t// out\n        /* \"#utility.yul\":4035:4211   */\n    tag_43:\n        /* \"#utility.yul\":4175:4203   */\n      0x4163636f756e7420416c72656164792052656769737465726564000000000000\n        /* \"#utility.yul\":4171:4172   */\n      0x00\n        /* \"#utility.yul\":4163:4169   */\n      dup3\n        /* \"#utility.yul\":4159:4173   */\n      add\n        /* \"#utility.yul\":4152:4204   */\n      mstore\n        /* \"#utility.yul\":4035:4211   */\n      pop\n      jump\t// out\n\n    auxdata: 0xa26469706673582212209d4f581d7a77a99dbc3212abd12c2a7f58f804ec7688a5e7d5ee7265333814d464736f6c63430008070033\n}\n",
				"bytecode": {
					"linkReferences": {},
					"object": "60806040526001805534801561001457600080fd5b50336000806101000a81548173ffffffffffffffffffffffffffffffffffffffff021916908373ffffffffffffffffffffffffffffffffffffffff160217905550610335806100646000396000f3fe608060405234801561001057600080fd5b506004361061002b5760003560e01c80630fe91b5e14610030575b600080fd5b61004a6004803603810190610045919061014f565b61004c565b005b600260003373ffffffffffffffffffffffffffffffffffffffff1673ffffffffffffffffffffffffffffffffffffffff16815260200190815260200160002060040160009054906101000a900460ff16156100dc576040517f08c379a00000000000000000000000000000000000000000000000000000000081526004016100d3906101bb565b60405180910390fd5b50565b60006100f26100ed84610200565b6101db565b90508281526020810184848401111561010e5761010d6102b6565b5b610119848285610242565b509392505050565b600082601f830112610136576101356102b1565b5b81356101468482602086016100df565b91505092915050565b600060208284031215610165576101646102c0565b5b600082013567ffffffffffffffff811115610183576101826102bb565b5b61018f84828501610121565b91505092915050565b60006101a5601a83610231565b91506101b0826102d6565b602082019050919050565b600060208201905081810360008301526101d481610198565b9050919050565b60006101e56101f6565b90506101f18282610251565b919050565b6000604051905090565b600067ffffffffffffffff82111561021b5761021a610282565b5b610224826102c5565b9050602081019050919050565b600082825260208201905092915050565b82818337600083830152505050565b61025a826102c5565b810181811067ffffffffffffffff8211171561027957610278610282565b5b80604052505050565b7f4e487b7100000000000000000000000000000000000000000000000000000000600052604160045260246000fd5b600080fd5b600080fd5b600080fd5b600080fd5b6000601f19601f8301169050919050565b7f4163636f756e7420416c7265616479205265676973746572656400000000000060008201525056fea26469706673582212209d4f581d7a77a99dbc3212abd12c2a7f58f804ec7688a5e7d5ee7265333814d464736f6c63430008070033",
					"opcodes": "PUSH1 0x80 PUSH1 0x40 MSTORE PUSH1 0x1 DUP1 SSTORE CALLVALUE DUP1 ISZERO PUSH2 0x14 JUMPI PUSH1 0x0 DUP1 REVERT JUMPDEST POP CALLER PUSH1 0x0 DUP1 PUSH2 0x100 EXP DUP2 SLOAD DUP2 PUSH20 0xFFFFFFFFFFFFFFFFFFFFFFFFFFFFFFFFFFFFFFFF MUL NOT AND SWAP1 DUP4 PUSH20 0xFFFFFFFFFFFFFFFFFFFFFFFFFFFFFFFFFFFFFFFF AND MUL OR SWAP1 SSTORE POP PUSH2 0x335 DUP1 PUSH2 0x64 PUSH1 0x0 CODECOPY PUSH1 0x0 RETURN INVALID PUSH1 0x80 PUSH1 0x40 MSTORE CALLVALUE DUP1 ISZERO PUSH2 0x10 JUMPI PUSH1 0x0 DUP1 REVERT JUMPDEST POP PUSH1 0x4 CALLDATASIZE LT PUSH2 0x2B JUMPI PUSH1 0x0 CALLDATALOAD PUSH1 0xE0 SHR DUP1 PUSH4 0xFE91B5E EQ PUSH2 0x30 JUMPI JUMPDEST PUSH1 0x0 DUP1 REVERT JUMPDEST PUSH2 0x4A PUSH1 0x4 DUP1 CALLDATASIZE SUB DUP2 ADD SWAP1 PUSH2 0x45 SWAP2 SWAP1 PUSH2 0x14F JUMP JUMPDEST PUSH2 0x4C JUMP JUMPDEST STOP JUMPDEST PUSH1 0x2 PUSH1 0x0 CALLER PUSH20 0xFFFFFFFFFFFFFFFFFFFFFFFFFFFFFFFFFFFFFFFF AND PUSH20 0xFFFFFFFFFFFFFFFFFFFFFFFFFFFFFFFFFFFFFFFF AND DUP2 MSTORE PUSH1 0x20 ADD SWAP1 DUP2 MSTORE PUSH1 0x20 ADD PUSH1 0x0 KECCAK256 PUSH1 0x4 ADD PUSH1 0x0 SWAP1 SLOAD SWAP1 PUSH2 0x100 EXP SWAP1 DIV PUSH1 0xFF AND ISZERO PUSH2 0xDC JUMPI PUSH1 0x40 MLOAD PUSH32 0x8C379A000000000000000000000000000000000000000000000000000000000 DUP2 MSTORE PUSH1 0x4 ADD PUSH2 0xD3 SWAP1 PUSH2 0x1BB JUMP JUMPDEST PUSH1 0x40 MLOAD DUP1 SWAP2 SUB SWAP1 REVERT JUMPDEST POP JUMP JUMPDEST PUSH1 0x0 PUSH2 0xF2 PUSH2 0xED DUP5 PUSH2 0x200 JUMP JUMPDEST PUSH2 0x1DB JUMP JUMPDEST SWAP1 POP DUP3 DUP2 MSTORE PUSH1 0x20 DUP2 ADD DUP5 DUP5 DUP5 ADD GT ISZERO PUSH2 0x10E JUMPI PUSH2 0x10D PUSH2 0x2B6 JUMP JUMPDEST JUMPDEST PUSH2 0x119 DUP5 DUP3 DUP6 PUSH2 0x242 JUMP JUMPDEST POP SWAP4 SWAP3 POP POP POP JUMP JUMPDEST PUSH1 0x0 DUP3 PUSH1 0x1F DUP4 ADD SLT PUSH2 0x136 JUMPI PUSH2 0x135 PUSH2 0x2B1 JUMP JUMPDEST JUMPDEST DUP2 CALLDATALOAD PUSH2 0x146 DUP5 DUP3 PUSH1 0x20 DUP7 ADD PUSH2 0xDF JUMP JUMPDEST SWAP2 POP POP SWAP3 SWAP2 POP POP JUMP JUMPDEST PUSH1 0x0 PUSH1 0x20 DUP3 DUP5 SUB SLT ISZERO PUSH2 0x165 JUMPI PUSH2 0x164 PUSH2 0x2C0 JUMP JUMPDEST JUMPDEST PUSH1 0x0 DUP3 ADD CALLDATALOAD PUSH8 0xFFFFFFFFFFFFFFFF DUP2 GT ISZERO PUSH2 0x183 JUMPI PUSH2 0x182 PUSH2 0x2BB JUMP JUMPDEST JUMPDEST PUSH2 0x18F DUP5 DUP3 DUP6 ADD PUSH2 0x121 JUMP JUMPDEST SWAP2 POP POP SWAP3 SWAP2 POP POP JUMP JUMPDEST PUSH1 0x0 PUSH2 0x1A5 PUSH1 0x1A DUP4 PUSH2 0x231 JUMP JUMPDEST SWAP2 POP PUSH2 0x1B0 DUP3 PUSH2 0x2D6 JUMP JUMPDEST PUSH1 0x20 DUP3 ADD SWAP1 POP SWAP2 SWAP1 POP JUMP JUMPDEST PUSH1 0x0 PUSH1 0x20 DUP3 ADD SWAP1 POP DUP2 DUP2 SUB PUSH1 0x0 DUP4 ADD MSTORE PUSH2 0x1D4 DUP2 PUSH2 0x198 JUMP JUMPDEST SWAP1 POP SWAP2 SWAP1 POP JUMP JUMPDEST PUSH1 0x0 PUSH2 0x1E5 PUSH2 0x1F6 JUMP JUMPDEST SWAP1 POP PUSH2 0x1F1 DUP3 DUP3 PUSH2 0x251 JUMP JUMPDEST SWAP2 SWAP1 POP JUMP JUMPDEST PUSH1 0x0 PUSH1 0x40 MLOAD SWAP1 POP SWAP1 JUMP JUMPDEST PUSH1 0x0 PUSH8 0xFFFFFFFFFFFFFFFF DUP3 GT ISZERO PUSH2 0x21B JUMPI PUSH2 0x21A PUSH2 0x282 JUMP JUMPDEST JUMPDEST PUSH2 0x224 DUP3 PUSH2 0x2C5 JUMP JUMPDEST SWAP1 POP PUSH1 0x20 DUP2 ADD SWAP1 POP SWAP2 SWAP1 POP JUMP JUMPDEST PUSH1 0x0 DUP3 DUP3 MSTORE PUSH1 0x20 DUP3 ADD SWAP1 POP SWAP3 SWAP2 POP POP JUMP JUMPDEST DUP3 DUP2 DUP4 CALLDATACOPY PUSH1 0x0 DUP4 DUP4 ADD MSTORE POP POP POP JUMP JUMPDEST PUSH2 0x25A DUP3 PUSH2 0x2C5 JUMP JUMPDEST DUP2 ADD DUP2 DUP2 LT PUSH8 0xFFFFFFFFFFFFFFFF DUP3 GT OR ISZERO PUSH2 0x279 JUMPI PUSH2 0x278 PUSH2 0x282 JUMP JUMPDEST JUMPDEST DUP1 PUSH1 0x40 MSTORE POP POP POP JUMP JUMPDEST PUSH32 0x4E487B7100000000000000000000000000000000000000000000000000000000 PUSH1 0x0 MSTORE PUSH1 0x41 PUSH1 0x4 MSTORE PUSH1 0x24 PUSH1 0x0 REVERT JUMPDEST PUSH1 0x0 DUP1 REVERT JUMPDEST PUSH1 0x0 DUP1 REVERT JUMPDEST PUSH1 0x0 DUP1 REVERT JUMPDEST PUSH1 0x0 DUP1 REVERT JUMPDEST PUSH1 0x0 PUSH1 0x1F NOT PUSH1 0x1F DUP4 ADD AND SWAP1 POP SWAP2 SWAP1 POP JUMP JUMPDEST PUSH32 0x4163636F756E7420416C72656164792052656769737465726564000000000000 PUSH1 0x0 DUP3 ADD MSTORE POP JUMP INVALID LOG2 PUSH5 0x6970667358 0x22 SLT KECCAK256 SWAP14 0x4F PC SAR PUSH27 0x77A99DBC3212ABD12C2A7F58F804EC7688A5E7D5EE7265333814D4 PUSH5 0x736F6C6343 STOP ADDMOD SMOD STOP CALLER "
				},
				"gasEstimates": {
					"creation": {
						"codeDepositCost": "164200",
						"executionCost": "46580",
						"totalCost": "210780"
					},
					"external": {
						"registerPerson(string)": "infinite"
					}
				},
				"methodIdentifiers": {
					"registerPerson(string)": "0fe91b5e"
				}
			},
			"storageLayout": {
				"storage": [
					{
						"astId": 230,
						"contract": "gas-station.sol:GasStation",
						"label": "owner",
						"offset": 0,
						"slot": "0",
						"type": "t_address_payable"
					},
					{
						"astId": 245,
						"contract": "gas-station.sol:GasStation",
						"label": "gasPrice",
						"offset": 0,
						"slot": "1",
						"type": "t_uint256"
					},
					{
						"astId": 265,
						"contract": "gas-station.sol:GasStation",
						"label": "people",
						"offset": 0,
						"slot": "2",
						"type": "t_mapping(t_address,t_struct(Person)260_storage)"
					}
				],
				"types": {
					"t_address": {
						"encoding": "inplace",
						"label": "address",
						"numberOfBytes": "20"
					},
					"t_address_payable": {
						"encoding": "inplace",
						"label": "address payable",
						"numberOfBytes": "20"
					},
					"t_bool": {
						"encoding": "inplace",
						"label": "bool",
						"numberOfBytes": "1"
					},
					"t_mapping(t_address,t_struct(Person)260_storage)": {
						"encoding": "mapping",
						"key": "t_address",
						"label": "mapping(address => struct GasStation.Person)",
						"numberOfBytes": "32",
						"value": "t_struct(Person)260_storage"
					},
					"t_string_storage": {
						"encoding": "bytes",
						"label": "string",
						"numberOfBytes": "32"
					},
					"t_struct(Car)252_storage": {
						"encoding": "inplace",
						"label": "struct GasStation.Car",
						"members": [
							{
								"astId": 247,
								"contract": "gas-station.sol:GasStation",
								"label": "name",
								"offset": 0,
								"slot": "0",
								"type": "t_string_storage"
							},
							{
								"astId": 249,
								"contract": "gas-station.sol:GasStation",
								"label": "fuelLevel",
								"offset": 0,
								"slot": "1",
								"type": "t_uint256"
							},
							{
								"astId": 251,
								"contract": "gas-station.sol:GasStation",
								"label": "init",
								"offset": 0,
								"slot": "2",
								"type": "t_bool"
							}
						],
						"numberOfBytes": "96"
					},
					"t_struct(Person)260_storage": {
						"encoding": "inplace",
						"label": "struct GasStation.Person",
						"members": [
							{
								"astId": 254,
								"contract": "gas-station.sol:GasStation",
								"label": "name",
								"offset": 0,
								"slot": "0",
								"type": "t_string_storage"
							},
							{
								"astId": 257,
								"contract": "gas-station.sol:GasStation",
								"label": "car",
								"offset": 0,
								"slot": "1",
								"type": "t_struct(Car)252_storage"
							},
							{
								"astId": 259,
								"contract": "gas-station.sol:GasStation",
								"label": "init",
								"offset": 0,
								"slot": "4",
								"type": "t_bool"
							}
						],
						"numberOfBytes": "160"
					},
					"t_uint256": {
						"encoding": "inplace",
						"label": "uint256",
						"numberOfBytes": "32"
					}
				}
			},
			"userdoc": {
				"kind": "user",
				"methods": {},
				"version": 1
			}
		}
	}
}